S00C00006A756D612E737265636B
S113000045C0000061C000005FC000005DC000008A
S11300105BC0000059C0000057C0000055C000007C
S113002053C0000051C000004FC000004DC000008C
S11300300C94280949C0000047C0000045C00000D6
S113004043C0000041C000003FC000003DC00000AC
S11300503BC0000039C0000037C0000035C00000BC
S113006033C0000031C000002FC000002DC00000CC
S11300702BC0000029C0000027C0000025C00000DC
S113008023C0000021C000001FC0000011241FBEB7
S1130090CFEFD0E1DEBFCDBF13E0A0E0B1E0EEE1F1
S11300A0F3E100E00BBF02C007900D92A233B10749
S11300B0D9F724E0A2E3B3E001C01D92AF38B20740
S11300C0E1F703D00C948D099BCFCF93DF9300D03D
S11300D01F92CDB7DEB78AEA89838BEB8A838CECD7
S11300E08B836894EE24E1F800E016E920E030E028
S11300F040E06AE080E044D023E030E0AE014F5FAE
S11301005F4F61E084E33DD67894CAD002E313E004
S1130110D6D0F80180819181019691838083F8CFB4
S1130120683E23E07207F0F09B01240F351F2D3E3B
S11301303340D0F441155105C9F0E82FF92FDB0104
S1130140AA0FBB1FAE59B4408C9111969C91119784
S1130150129690838183415051093296411551057D
S113016099F706C081E0089581E0089580E008953C
S113017080E0089581E0089581E0089581E0089584
S1130180EF920F931F93CF93DF93C82F862F642F83
S1130190A90198019FEF980F973F08F077C08093CB
S11301A04C03CC2319F0C13099F164C0EBE3F7E0C0
S11301B0F0934803E0934703E4E4F7E0F093460345
S11301C0E0934503E2E8F7E0F0934A03E093490340
S11301D0EBE4F7E0F0934403E0934303109242030B
S11301E010924103EFECF7E0F0938A03E093890364
S11301F0E0E2F8E0F0938603E0938503EAE5F8E0B3
S1130200F0938803E09387030E2DFED5D82F33C0D7
S1130210E4E2F2E0F0934803E0934703EEE2F2E015
S1130220F0934603E0934503E8E6F2E0F0934A03D3
S1130230E0934903E5E3F2E0F0934403E0934303DE
S11302401092420310924103E3EBF2E0F0938A032D
S1130250E0938903E3E5F3E0F0938603E0938503F9
S1130260E2EEF3E0F0938803E09387030E2DD3D0FE
S1130270D82F01C0D2E0D1110CC042D7882341F05D
S1130280C0934B0381E08093300103C0D2E001C0EE
S1130290D3E08D2FDF91CF911F910F91EF900895AF
S11302A080913001813049F4E0914703F091480393
S11302B009951092300180E0089586E00895CF9367
S11302C0DF931F92CDB7DEB780913001811194C0C6
S11302D0CE01019620D7813009F090C08981813008
S11302E019F08230D1F08CC0E0914303F0914403C3
S11302F04CE353E06EE373E080E493E009958111ED
S113030081C08091400390914C03891711F08111B1
S11303107BC082E0F9D680E07AC0A0913E03B09120
S11303203F039C9190933B0381E080933A03809137
S11303300001882331F1981751F0E3E0F1E021E066
S113034030E080818823E9F0981315C002C020E0D2
S113035030E0F901EE0FFF1F2E0F3F1FF901E050AF
S1130360FF4F0180F281E02D6CE373E0CD0109952C
S113037080933A0306C02F5F3F4F339620313105F7
S113038001F780914003882309F440C060913A0347
S1130390662309F1E0913E03F0913F0381E090E090
S11303A090933D0380933C0380913B03806880835A
S11303B020913E0330913F0380913C0390913D0393
S11303C0AC014F5F5F4F50933D0340933C03F901F1
S11303D0E80FF91F608340913C0350913D03609105
S11303E03E0370913F03E0914903F0914A038091E9
S11303F04C03099580E00BC086E009C080E007C08B
S113040080E005C080E003C080E001C080E00F9080
S1130410DF91CF9108950F93862FBA01A901F89423
S11304209AE090934D0327E096D6813039F480E228
S11304309EE4D3D6813021F480E003C083E001C080
S113044083E078940F910895F89460E081E071D688
S113045010925503789480E057C60895F89460E0AC
S113046080E067D6EBD678940895F89420915303EE
S1130470309154032330310530F1209153033091EE
S113048054032115310561F0EFE8F3E021573C4FA7
S1130490A0E0B191AB0FE217F307D9F7A11115C092
S11304A020918F03FC012083809153039091540386
S11304B00297FA019183808380E993E0FB019183A1
S11304C0808380E003C085E001C085E078940895CE
S11304D0F89490915503911143C0FB013197F09327
S11304E05103E093500321E030E030934F03209315
S11304F04E03808380914E0390914F03480F591F00
S113050050934F0340934E0380914E0390914F03B9
S11305109C0121503109892B49F0620F731F80E03F
S11305209191890FE617F707D9F701C080E0482FAA
S1130530419580914E0390914F039C012F5F3F4F53
S113054030934F0320934E03FC01E157FC4F40834B
S113055081E08093560361E080E0EBD580E001C048
S113056085E078940895CF93DF931F92CDB7DEB7DB
S1130570CE0101962DD680915503813031F008F4D7
S11305807AC0823009F45AC085C043D689818A333F
S113059041F410925203109254031092530380E0DA
S11305A07EC08D3029F482E08093550380E077C0CB
S11305B090ED980F9A3038F09FEB980F963028F40E
S11305C029EC280F03C0292F01C02FEF909152036B
S11305D0992319F09130E1F05FC080915303909119
S11305E054038F3F910509F070F4E0915303F091A7
S11305F05403E157FC4F2295207F208381E08093B0
S1130600520380E04CC01092550318D680E047C0D6
S1130610E0915303F0915403E157FC4F8081282B60
S11306202083809153039091540301969093540333
S1130630809353031092520380E031C089819091DA
S11306404D03891306C0FAD51092550381E05CD599
S113065026C08A3361F4109252031092540310920C
S1130660530381E080935503D4D580E018C01092E1
S1130670550380E014C089818A3381F4CAD510926D
S11306805403109253031092520381E08093550354
S113069080E005C080E003C080E001C080E00F90EE
S11306A0DF91CF910895CF93809156038230B9F0B2
S11306B030F4882309F47BC0813041F07DC083305D
S11306C009F462C0843009F467C076C08AE37DD53A
S11306D082E08093560310925203C0E070C0809170
S11306E04E0390914F03892B09F447C08091520324
S11306F0882319F08130C9F061C0E0915003F09172
S11307005103808182958F708A3010F4805D07C018
S113071096EF980F963010F4895C01C080E355D5AC
S113072081E080935203C0E04AC0E0915003F0910D
S1130730510380818F708A3010F4805D07C096EF7A
S1130740980F963010F4895C01C080E33ED5809107
S11307505003909151030196909351038093500359
S11307601092520380914E0390914F0301979093FE
S11307704F0380934E03C0E022C08DE026D583E072
S113078080935603C0E01BC080914D031ED584E0C6
S113079080935603C0E013C01092560383E0B4D490
S11307A0C82F60E081E0C5D41092560308C060E011
S11307B081E0BFD4C0E003C0C0E001C0C0E08C2F22
S11307C0CF910895809155038150823010F4109296
S11307D0550334D580E0089561157105B1F0FC012D
S11307E0680F791F8FEF4FEF21918227282F30E078
S11307F0D901AF5CBD4F8C918427D901AF5CBE4F4A
S11308004C91E617F70781F702C08FEF4FEF90E0A6
S1130810942B08951F93CF93DF93EB0128813981A3
S11308202530310509F055C0DC011196EC91119782
S113083012966C91129713964C91139750E0542F83
S1130840442714962C91422B9A01215031092F3CB4
S1130850374008F040C01982188221E0DC012C9353
S1130860288139812F5F3F4F398328839A0127706C
S11308703327232B51F09A013695279536952795E2
S11308803695279511E0120F08C09A0136952795E1
S11308903695279536952795122FDC0111961C93D2
S11308A0288139812F5F3F4F3983288370E07E2B65
S11308B06F5F7F4F20E002965FDC882311F012D433
S11308C00BC088819981810F911D9983888380E071
S11308D003C083E001C083E0DF91CF911F910895AD
S11308E0CF93DF9300D0CDB7DEB7FB0120813181F8
S11308F02530310501F5FC0131816281248121110A
S11309001CC083819FEF980F9E3FC8F01A828F3FCF
S113091019F481E0898301C0198270E0732B6F5F41
S11309207F4F21E041E050E0CE01019625DC882391
S113093041F0D8D307C083E005C083E003C083E05F
S113094001C080E00F900F90DF91CF910895CF9375
S1130950DF93EB01288139812630310508F443C047
S1130960DC011196FC91119712966C9112971396D3
S11309704C91139750E0542F442714962C911497BC
S1130980422B15967C919A0127703327232B51F023
S11309909A01369527953695279536952795E1E062
S11309A0E20F08C09A013695279536952795369516
S11309B02795E22F9A0121503109203B3740A8F4B2
S11309C0E71315C070E07F2B6F5F7F4F21E0069621
S11309D0D3DB882311F086D30BC085E090E09983A4
S11309E0888380E005C083E003C083E001C083E026
S11309F0DF91CF9108951F93CF93DF93EB0128816B
S1130A0039812530310509F054C0DC011196EC918F
S1130A10119712966C91129713964C91139750E07C
S1130A20542F442714962C91422B9A0121503109BA
S1130A302F3C374008F03FC01982188222E0DC01C5
S1130A402C93288139812F5F3F4F398328839A0162
S1130A5027703327232B51F09A0136952795369525
S1130A6027953695279511E0120F08C09A013695FF
S1130A7027953695279536952795122FDC011196E3
S1130A801C93288139812F5F3F4F3983288370E07D
S1130A907E2B6F5F7F4F029671DB882311F022D388
S1130AA00BC088819981810F911D9983888380E08F
S1130AB003C083E001C083E0DF91CF911F910895CB
S1130AC0FB01208131812530310591F4FC016181E4
S1130AD070E0762F66272281622B6F5F7F4F21E0C3
S1130AE041E050E0039646DB882321F0FBC20895E1
S1130AF083E0089580E00895CF93DF93EB0128818C
S1130B0039812630310570F1DC011196EC91119791
S1130B1012966C91129713964C91139750E0542FA0
S1130B20442714962C911497422B15967C919A0184
S1130B302150310928373105B8F4242F220F271307
S1130B4015C070E07E2B6F5F7F4F21E0069612DBAD
S1130B50882311F0C7D20BC085E090E09983888385
S1130B6080E005C083E003C083E001C083E0DF913F
S1130B70CF9108950F931F93CF93DF93EB012881B7
S1130B80398125303105A1F5FC015181628144810F
S1130B90042F10E09801215031092D37310550F50B
S1130BA01982188223E02083288139812F5F3F4FE7
S1130BB039832883440F4183288139812F5F3F4F34
S1130BC03983288370E0752B6F5F7F4F20E0A80185
S1130BD00296D0DA882311F085D20DC0000F111FC0
S1130BE088819981080F191F1983088380E003C045
S1130BF083E001C083E0DF91CF911F910F910895AD
S1130C00CF92DF92EF92FF920F931F93CF93DF93D4
S1130C10EC018B01FB01808191810A9708F456C095
S1130C20D980CA80EB80F12CFE2CEE248C81E82A3A
S1130C30ED816E812F8148853985C70101978D37F4
S1130C40910508F045C050E0522BCA01019789373D
S1130C50910508F03FC0832F90E09A01220F331FC3
S1130C6028173907C9F570E07E2B6F5F7F4F21E0AD
S1130C70CE010A967FDA811131C0F8011182108207
S1130C8087E18883808191810196918380838E2D71
S1130C90880F8983808191810196918380836C2D53
S1130CA070E07D296F5F7F4F20E0A701CE0102969F
S1130CB061DA811113C0EE0CFF1CF801808191816F
S1130CC08E0D9F1D9183808380E009C080E007C062
S1130CD083E005C083E003C083E001C003D2DF9159
S1130CE0CF911F910F91FF90EF90DF90CF900895D7
S1130CF00F931F93CF93DF93EB0128813981253024
S1130D003105B9F5FC0141816281038110E0102FA6
S1130D1000272481022B9801215031092C373105F9
S1130D2050F51982188224E02083288139812F5FAD
S1130D303F4F39832883202F220F21832881398133
S1130D402F5F3F4F3983288370E0742B6F5F7F4F91
S1130D50A8010296E5D9882311F0C4D10DC0000F73
S1130D60111F88819981080F191F1983088380E056
S1130D7003C083E001C083E0DF91CF911F910F9105
S1130D800895CF93DF93FA01E9012296C032D10589
S1130D90E8F48093590382E090E0909358038093A1
S1130DA0570381E0611101C080E0819580935A036B
S1130DB02115310569F0A901BF018BE593E0A4D2A7
S1130DC0D0935803C093570380E003C084E001C06C
S1130DD080E0DF91CF9108950F931F93CF93DF931A
S1130DE08B01C0915703D0915803AE0169E573E0BC
S1130DF001968AD22196F801D183C08380E0DF91E5
S1130E00CF911F910F910895CF92DF92EF92FF92AD
S1130E100F93862F69017A01F89428E0B701A6019F
S1130E209AD18130F1F481E0C8168BE4D806E1044C
S1130E30F10470F4A7019601220F331F441F551FBC
S1130E4060EA7FE787E190E02ED2DA01C90104C0AD
S1130E5083E290E0A0E0B0E0C0D1813021F480E0F2
S1130E6003C083E001C083E078940F91FF90EF907A
S1130E70DF90CF900895F89410927F0360E081E0B2
S1130E8058D1C7D178940895F89460E080E051D1A6
S1130E90D5D178940895EF92FF920F931F93CF9337
S1130EA0DF937C01EB018A01F8942091790330915E
S1130EB07A0324303105D8F06091790370917A0374
S1130EC08FE893E089DC892BA1F480918F03F701EB
S1130ED080838091790390917A030397F801918339
S1130EE0808380E993E09983888380E003C085E070
S1130EF001C085E07894DF91CF911F910F91FF900D
S1130F00EF900895F89490917F03913009F044C0D4
S1130F10FB013197F0937E03E0937D0321E030E001
S1130F2030937C0320937B03808380917B03909197
S1130F307C03480F591F50937C0340937B036091BB
S1130F407B0370917C03CF0147DC692F20917B03E5
S1130F5030917C03A9014F5F5F4F50937C03409312
S1130F607B03F901E157FC4F808380917B039091CF
S1130F707C039C012F5F3F4F30937C0320937B03C2
S1130F80FC01E157FC4F608381E08093800361E0C2
S1130F9080E0CFD080E001C085E078940895CF93BD
S1130FA0DF931F92CDB7DEB7CE01019611D18091A8
S1130FB07F03813051F028F0823001F1833019F041
S1130FC03AC027D138C025D136C010927A03109286
S1130FD079038091790390917A039C012F5F3F4FAD
S1130FE030937A03209379032981FC01E157FC4F64
S1130FF0208382E080937F030CD11DC0809179030C
S113100090917A038F3F910509F088F480917903D8
S113101090917A039C012F5F3F4F30937A03209382
S113102079032981FC01E157FC4F208303C083E04D
S113103080937F03EED080E00F90DF91CF910895ED
S1131040CF9380918003882319F0813031F02EC032
S113105060E081E06ED0C0E02AC080917B03909173
S11310607C03892BD1F0E0917D03F0917E03808194
S1131070ACD080917D0390917E03019690937E0382
S113108080937D0380917B0390917C0301979093DF
S11310907C0380937B03C0E00AC083E035D0C82F73
S11310A060E081E046D01092800301C0C0E08C2F44
S11310B0CF910895CF9380917F03882319F08230D4
S11310C029F008C080E020D0C82F05C081E01CD0E2
S11310D0C82F01C0C0E0B2D081E080937F038C2F81
S11310E0CF910895813051F018F0873019F004C081
S11310F080E0089586E0089584E0089582E00895EC
S11311001092810381E0089591E09093810380938C
S1131110820381E0089520918103222341F02091EC
S11311208203FC0120831092810381E0089580E012
S11311300895539A882321F08AB180698AB903C03B
S11311408AB18F768AB9662321F08AB188628AB916
S11311500895559808950F93CF93C22FDB01CA01C8
S1131160880F991FAA1FBB1F880F991FAA1FBB1F97
S11311709C01AD01220F331F441F551F220F331F43
S1131180441F551F60E072E18AE790E08CD0215043
S113119029B9013021F0023021F080E003C080E35E
S11311A001C080E2C73021F0C83019F4866001C064
S11311B08460E5E9F0E09081892B808360E080E041
S11311C0B8DF81E0CF910F9108958CB981E0089543
S11311D02CB1FC01208381E008959C01A4E8BEE1C8
S11311E084D020E23EE440E050E05DD030938403BC
S11311F0209383031FBC1EBC10927A008EB58A7F95
S11312008EBD87B78F7E87BF86B7806186BF81E03A
S113121008951DBC1CBC8091830390918403892B89
S113122049F087B7806187BF8091830390918403DD
S11312309BBD8ABD8EB585608EBD08958EB58A7FAF
S11312408EBD87B78F7E87BF86B7806186BF0895BE
S11312501F920F920FB60F9211240BB60F922F9379
S11312603F934F935F936F937F938F939F93AF932A
S1131270BF93EF93FF93E0918703F091880309955F
S1131280FF91EF91BF91AF919F918F917F916F915A
S11312905F914F913F912F910F900BBE0F900FBE16
S11312A00F901F901895A1E21A2EAA1BBB1BFD01DB
S11312B00DC0AA1FBB1FEE1FFF1FA217B307E40731
S11312C0F50720F0A21BB30BE40BF50B661F771F89
S11312D0881F991F1A9469F7609570958095909569
S11312E09B01AC01BD01CF010895A29FB001B39F42
S11312F0C001A39F700D811D1124911DB29F700D1B
S1131300811D1124911D0895FB01DC0102C001908F
S11113100D9241505040D8F70895F894FFCF45
S113131E11EC0604780603BA05107C050660051761
S113132E0006010A040570040FA70402FB04000062
S113133E000000000000000000000000000000009B
S113134E0200C0C101C30302C2C60607C705C5C455
S113135E04CC0C0DCD0FCFCE0E0ACACB0BC9090887
S113136EC8D81819D91BDBDA1A1EDEDF1FDD1D1CC7
S113137EDC14D4D515D71716D6D21213D311D1D057
S113138E10F03031F133F3F23236F6F737F53534F7
S113139EF43CFCFD3DFF3F3EFEFA3A3BFB39F9F8C7
S11313AE3828E8E929EB2B2AEAEE2E2FEF2DEDEC67
S11313BE2CE42425E527E7E62622E2E323E1212097
S11313CEE0A06061A163A3A26266A6A767A5656497
S11313DEA46CACAD6DAF6F6EAEAA6A6BAB69A9A807
S11313EE6878B8B979BB7B7ABABE7E7FBF7DBDBC47
S11313FE7CB47475B577B7B67672B2B373B17170D7
S113140EB050909151935352929656579755959436
S113141E549C5C5D9D5F9F9E5E5A9A9B5B99595846
S113142E98884849894B8B8A4A4E8E8F4F8D4D4CE6
S113143E8C44848545874746868242438341818016
S113144E4000C1814001C0804101C0804100C18182
S113145E4001C0804100C1814000C1814001C08073
S113146E4101C0804100C1814000C1814001C08062
S113147E4100C1814001C0804101C0804100C18151
S113148E4001C0804100C1814000C1814001C08043
S113149E4100C1814001C0804101C0804100C18131
S11314AE4000C1814001C0804101C0804100C18122
S11314BE4001C0804100C1814000C1814001C08013
S11314CE4101C0804100C1814000C1814001C08002
S11314DE4100C1814001C0804101C0804100C181F1
S11314EE4000C1814001C0804101C0804100C181E2
S11314FE4001C0804100C1814000C1814001C080D3
S113150E4100C1814001C0804101C0804100C181C0
S113151E4001C0804100C1814000C1814001C080B2
S113152E4101C0804100C1814000C1814001C080A1
S113153E4100C1814001C0804101C0804100C18190
S105154E400057
S9030000FC
